:100000000C942A000C9447000C9447000C944D0269
:100010000C9447000C9447000C9447000C94470044
:100020000C9447000C9447000C9447000C94F40483
:100030000C9447000C9447000C9447000C94470024
:100040000C9447000C9447000C9447000C94470014
:100050000C94470011241FBECFE5D8E0DEBFCDBF12
:1000600010E0A0E6B0E0E6E4FDE002C005900D92ED
:10007000A236B107D9F720E0A2E6B0E001C01D9298
:10008000A437B207E1F70E941D030C94A1060C945B
:1000900000000E9490020E94A0006EE181E00E9498
:1000A000A80080E008950E94B6022FEF89EF90E04B
:1000B000215080409040E1F700C000000E94C5023E
:1000C0008091680090916900489750F08091680095
:1000D00090916900819720F483E08093600028C0AC
:1000E0008091680090916900489720F482E08093A5
:1000F000600018C08091680090916900819720F09D
:1001000081E08093600008C080916000823051F0EF
:10011000833071F0813091F46EE181E00E94A8009B
:1001200080E008956EE182E00E94A80080E00895DA
:100130006EE183E00E94A80080E0089581E00895C8
:1001400081E00E94080182E00E94080180E0089599
:10015000CF93C62F823031F128F4882341F08130CB
:1001600081F053C0833079F18430F1F14EC060E00A
:1001700081E00E94490160E082E00E94490180E044
:1001800045C081E00E94A3016C2F82E00E94A30180
:1001900061E081E00E94490161E082E00E94490142
:1001A00080E034C081E00E94A3016C2F82E00E94B5
:1001B000A30162E081E00E94490162E082E00E94C6
:1001C000490180E023C081E00E94A3016C2F82E0FE
:1001D0000E94A30161E081E00E94490162E082E0A7
:1001E0000E94490180E012C081E00E94A3016C2FAF
:1001F00082E00E94A30162E081E00E94490161E087
:1002000082E00E94490180E001C081E0CF91089521
:100210001F93CF93DF93CDB7DEB727970FB6F89430
:10022000DEBF0FBECDBF813061F483E089838CE1F6
:100230008A838FEF8B83CE0101960E942B0310E0FF
:100240000FC0823061F483E0898380EE8A838FEF70
:100250008B83CE0101960E942B0310E001C011E0B8
:1002600081E08C831D8282E08E831F82CE01049602
:100270000E949903CE0106960E949903812F27962A
:100280000FB6F894DEBF0FBECDBFDF91CF911F91A7
:100290000895813051F5613081F018F06230C9F075
:1002A0004EC040E064E083E00E946B0340E068E001
:1002B00083E00E946B0380E008954FEF64E083E0E9
:1002C0000E946B0340E068E083E00E946B0380E0E3
:1002D000089540E064E083E00E946B034FEF68E024
:1002E00083E00E946B0380E00895613081F018F094
:1002F0006230C9F026C040E060E483E00E946B03F6
:1003000040E060E883E00E946B0380E008954FEFD7
:1003100060E483E00E946B0340E060E883E00E94B9
:100320006B0380E0089540E060E483E00E946B038B
:100330004FEF60E883E00E946B0380E0089581E066
:10034000089581E0089560936200813019F0823051
:1003500061F016C06091620022E330E040E050E0BE
:1003600081E00E94BE0380E008956091620022E374
:1003700030E040E050E082E00E94BE0380E008955B
:1003800081E00895CF93DF9300D01F92CDB7DEB701
:100390000097B9F1FC0178948181813081F018F0E7
:1003A0008230C9F023C0E0E7F0E01082118284E0DF
:1003B000828381E08383CF010E944C0417C0E0E771
:1003C000F0E081E08083118284E082838383CF0127
:1003D0000E944C040BC0E0E7F0E082E080831182D1
:1003E000828380E48383CF010E944C0481E089836F
:1003F00084E08A831B82CE0101960E942B0380E059
:1004000001C081E00F900F900F90DF91CF91089580
:10041000FF920F931F93CF93DF9300D0CDB7DEB73A
:100420008A011A8219828230F8F0823019F0FF2492
:10043000F3941BC08BB78F7D8BBF84B78F7B84BF3A
:10044000613019F0623021F006C084B784BF03C068
:1004500084B7806484BF8AB78F7D8ABF8BB7806280
:100460008BBFFF24F39401C0F12CBE016F5F7F4F5F
:1004700080E00E94D70489819A81A0E0B0E0F80171
:1004800080839183A283B3838F2D0F900F90DF9190
:10049000CF911F910F91FF9008951F920F920FB669
:1004A0000F9211242F933F934F935F936F937F93FA
:1004B0008F939F93AF93BF93EF93FF9380916300CC
:1004C000882319F0813081F01AC060E071E080E08B
:1004D0000E94950444E650E061E082E00E94080238
:1004E00081E0809363000BC044E650E062E082E06C
:1004F0000E94080280E00E94C00410926300FF91F5
:10050000EF91BF91AF919F918F917F916F915F918B
:100510004F913F912F910F900FBE0F901F90189504
:10052000CF93DF9300D000D01F92CDB7DEB71982F2
:1005300081E08A838FEF8B83CE0101960E942B038B
:100540001D8282E08C83CE0104960E94C20144E6A3
:1005500050E062E08C810E94080280E00F900F90D2
:100560000F900F900F90DF91CF9108954FEF61E0C2
:1005700080E00E946B0380E58A95F1F740E061E03E
:1005800080E00E946B0380E00895CF93DF9300D05A
:1005900000D0CDB7DEB719821A821B821C828091EF
:1005A0006B0090E0982F8827092E000CAA0BBB0B3C
:1005B0004091640050916500609166007091670001
:1005C000840F951FA61FB71F880F991FAA1FBB1F57
:1005D000880F991FAA1FBB1F880F991FAA1FBB1F37
:1005E000880F991FAA1FBB1F89839A83AB83BC8383
:1005F00069817A818B819C810E94A60520E030E090
:1006000048E652E40E9405050E9477057093690050
:10061000609368002FEF89EF90E021508040904078
:10062000E1F700C0000010926B0080E00F900F9087
:100630000F900F90DF91CF9108950E9449000E9482
:1006400053002FEF81EE94E0215080409040E1F77D
:1006500000C00000F4CFFC01892BC9F180818130FA
:1006600091F028F08230D9F0833029F132C02AB3DA
:100670008181982F9095292392819823822F892B0D
:100680008ABB80E0089527B38181982F9095292314
:1006900092819823822F892B87BB80E0089524B311
:1006A0008181982F9095292392819823822F892BDD
:1006B00084BB80E0089521B38181982F90952923F0
:1006C00092819823822F892B81BB80E0089581E05D
:1006D000089581E00895813079F028F08230A9F002
:1006E0008330E1F024C08BB3962F90958923462365
:1006F000482B4BBB80E0089588B3962F90958923B3
:100700004623482B48BB80E0089585B3962F9095EB
:1007100089234623482B45BB80E0089582B3962F5A
:10072000909589234623482B42BB80E0089581E0C1
:1007300008950097F9F0FC018081813039F0E0F0F4
:10074000823071F08330C1F081E008958EB59FB59D
:10075000806192689FBD8EBD89B789BF80E0089592
:100760008EB59FB5806192629FBD8EBD89B789BFEE
:1007700080E0089581E0089580E00895813041F09F
:1007800008F46CC08230B9F1833009F07EC066C0D5
:10079000223331054105510531F02436310541053B
:1007A0005105A9F05DC081E792E097BD86BD70E07C
:1007B00080E090E00E94A80520E030E048EC50E4A2
:1007C0000E9434060E9477057BBD6ABD58C088E34D
:1007D00091E097BD86BD70E080E090E00E94A805A2
:1007E00020E030E048E450E40E9434060E9477059F
:1007F0007BBD6ABD44C0223331054105510531F04E
:100800002436310541055105A9F02CC081E792E05D
:1008100097BD86BD70E080E090E00E94A80520E0D2
:1008200030E048EC50E40E9434060E94770579BD20
:1008300068BD25C088E391E097BD86BD70E080E08B
:1008400090E00E94A80520E030E048E450E40E94D7
:1008500034060E94770579BD68BD11C080E003C0F1
:1008600081E001C080E02EB53FB524603FBD2EBDC4
:10087000811111C081E080936A0080E008958EB5F7
:100880009FB584609FBD8EBDF5CF8EB59FB584604A
:100890009FBD8EBD81E00895FC01892BE1F180812F
:1008A0008130B1F018F0823031F137C0818181118F
:1008B00036C083B783BF83B783BF83B783BF8281CB
:1008C00080936F0099B78381892B89BF80E0089559
:1008D0008181811126C08EB59FB59FBD8EBD82815D
:1008E00090E090936E0080936D0099B78381892B7F
:1008F00089BF80E008958181811115C085B585BDCE
:10090000828180936C0099B78381892B89BF82B5DE
:1009100082BD80E0089581E0089581E0089580E03F
:10092000089580E0089580E00895813069F018F01E
:100930008230D9F023C093B780916F00892B83BF99
:10094000619562BF80E008952EB53FB580916D003E
:1009500090916E00822B932B9FBD8EBD71956195FA
:1009600071097DBD6CBD80E0089595B580916C00E6
:10097000892B85BD619564BD80E0089581E008956F
:10098000813049F018F0823059F00FC083B7887F6A
:1009900083BF80E008958EB5887F8EBD80E0089586
:1009A00085B5887F85BD80E0089581E00895813018
:1009B00059F018F0823079F015C082B790E0FB0151
:1009C0009183808380E008958CB59DB5FB01918370
:1009D000808380E0089584B590E0FB01918380835B
:1009E00080E0089581E008951F920F920FB60F9254
:1009F00011248F9380916B008F5F80936B008F9198
:100A00000F900FBE0F901F9018950E9419050C941F
:100A1000FA050E94F30558F00E94EC0540F029F415
:100A20005F3F29F00C94E30551110C942E060C94B1
:100A3000E9050E940B0668F39923B1F3552391F35E
:100A4000951B550BBB27AA2762177307840738F03D
:100A50009F5F5F4F220F331F441FAA1FA9F335D09A
:100A60000E2E3AF0E0E832D091505040E695001C4E
:100A7000CAF72BD0FE2F29D0660F771F881FBB1F08
:100A8000261737074807AB07B0E809F0BB0B802DE6
:100A9000BF01FF2793585F4F3AF09E3F510578F012
:100AA0000C94E3050C942E065F3FE4F3983ED4F3D8
:100AB000869577956795B795F7959F5FC9F7880FE6
:100AC000911D9695879597F90895E1E0660F771F38
:100AD000881FBB1F621773078407BA0720F0621BC9
:100AE000730B840BBA0BEE1F88F7E09508950E94F4
:100AF000130688F09F5798F0B92F9927B751B0F097
:100B0000E1F0660F771F881F991F1AF0BA95C9F791
:100B100014C0B13091F00E942D06B1E008950C94FC
:100B20002D06672F782F8827B85F39F0B93FCCF3AF
:100B3000869577956795B395D9F73EF4909580950E
:100B4000709561957F4F8F4F9F4F0895E89409C02E
:100B500097FB3EF490958095709561957F4F8F4FF0
:100B60009F4F9923A9F0F92F96E9BB279395F69506
:100B7000879577956795B795F111F8CFFAF4BB0F84
:100B800011F460FF1BC06F5F7F4F8F4F9F4F16C0E8
:100B9000882311F096E911C0772321F09EE8872F72
:100BA000762F05C0662371F096E8862F70E060E02E
:100BB0002AF09A95660F771F881FDAF7880F9695A7
:100BC000879597F9089597F99F6780E870E060E04E
:100BD00008959FEF80EC089500240A9416161706D6
:100BE00018060906089500240A941216130614061E
:100BF00005060895092E0394000C11F4882352F081
:100C0000BB0F40F4BF2B11F460FF04C06F5F7F4F38
:100C10008F4F9F4F089557FD9058440F551F59F01F
:100C20005F3F71F04795880F97FB991F61F09F3FD9
:100C300079F087950895121613061406551FF2CF02
:100C40004695F1DF08C0161617061806991FF1CF52
:100C500086957105610508940895E894BB27662779
:100C60007727CB0197F908950E9447060C94FA055F
:100C70000E94EC0538F00E94F30520F0952311F056
:100C80000C94E3050C94E90511240C942E060E94A3
:100C90000B0670F3959FC1F3950F50E0551F629FAF
:100CA000F001729FBB27F00DB11D639FAA27F00DC5
:100CB000B11DAA1F649F6627B00DA11D661F829FEC
:100CC0002227B00DA11D621F739FB00DA11D621FD1
:100CD000839FA00D611D221F749F3327A00D611DEE
:100CE000231F849F600D211D822F762F6A2F1124D0
:100CF0009F5750409AF0F1F088234AF0EE0FFF1F03
:100D0000BB1F661F771F881F91505040A9F79E3F59
:100D1000510580F00C94E3050C942E065F3FE4F33C
:100D2000983ED4F3869577956795B795F795E795AF
:100D30009F5FC1F7FE2B880F911D9695879597F9B8
:060D40000895F894FFCFB6
:020D46000200A9
:00000001FF
