S01600004341525F50726F6A6563742041312E7372656370
S11300000C942A000C9447000C9447000C947C0236
S11300100C9447000C9447000C9447000C94470040
S11300200C9447000C9447000C9447000C942A0548
S11300300C9447000C9447000C9447000C94470020
S11300400C9447000C9447000C9447000C94470010
S11300500C94470011241FBECFE5D8E0DEBFCDBF0E
S113006010E0A0E6B0E0E2EBFDE002C005900D92E6
S1130070A236B107D9F720E0A2E6B0E001C01D9294
S1130080A437B207E1F70E9453030C94D7060C94EB
S113009000000E94BF020E94AC006EE181E00E9459
S11300A0B70080E00895CF930E94E902C82F2FEF94
S11300B089EF90E0215080409040E1F700C00000BB
S11300C00E94FB02C82B80916800909169004897B8
S11300D050F08091680090916900819720F483E04A
S11300E08093600030C080916800909169004897C7
S11300F020F482E08093600020C080916800909199
S11301006900819720F081E08093600010C08091A5
S11301106000813061F028F0823079F08330C9F4D6
S113012012C06EE180E00E94B7008C2B13C06EE118
S113013081E00E94B7008C2B0DC06EE182E00E942A
S1130140B7008C2B07C06EE183E00E94B7008C2BB4
S113015001C081E0CF910895CF9381E00E942701EF
S1130160C82F82E00E9427018C2BCF910895CF9352
S1130170DF93D62F823059F128F4882349F0813057
S113018091F061C08330B9F1843009F448C05BC098
S113019060E081E00E946901C82F60E082E00E9473
S11301A069018C2B51C081E00E94CB01C82F6D2FB7
S11301B082E00E94CB01C82B61E081E00E946901CA
S11301C0C82B61E082E00E9469018C2B3DC081E074
S11301D00E94CB01C82F6D2F82E00E94CB01C82B57
S11301E062E081E00E946901C82B62E082E00E9423
S11301F069018C2B29C081E00E94CB01C82F6D2F8F
S113020082E00E94CB01C82B61E081E00E94690179
S1130210C82B62E082E00E9469018C2B15C081E04A
S11302200E94CB01C82F6D2F82E00E94CB01C82B06
S113023062E081E00E946901C82B61E082E00E94D3
S113024069018C2B01C081E0DF91CF9108951F9348
S1130250CF93DF93CDB7DEB727970FB6F894DEBF01
S11302600FBECDBF813061F483E089838CE18A8342
S11302708FEF8B83CE0101960E946103182F0FC06C
S1130280823061F483E0898380EE8A838FEF8B83ED
S1130290CE0101960E946103182F01C011E081E094
S11302A08C831D8282E08E831F82CE0104960E947D
S11302B0CF03182BCE0106960E94CF03812B2796DD
S11302C00FB6F894DEBF0FBECDBFDF91CF911F9163
S11302D00895CF93813069F5613089F018F0623068
S11302E0D9F054C040E064E083E00E94A103C82F29
S11302F040E068E083E00E94A1038C2B4AC04FEFEA
S113030064E083E00E94A103C82F40E068E083E03A
S11303100E94A1038C2B3DC040E064E083E00E9476
S1130320A103C82F4FEF68E083E00E94A1038C2B48
S113033030C0613089F018F06230D9F029C040E053
S113034060E483E00E94A103C82F40E060E883E0FA
S11303500E94A1038C2B1DC04FEF60E483E00E9438
S1130360A103C82F40E060E883E00E94A1038C2B26
S113037010C040E060E483E00E94A103C82F4FEF67
S113038060E883E00E94A1038C2B03C081E001C0DC
S113039081E0CF91089560936200813019F082303A
S11303A061F016C06091620022E330E040E050E06A
S11303B081E00E94F40380E008956091620022E3EA
S11303C030E040E050E082E00E94F40380E00895D1
S11303D081E008951F93CF93DF9300D01F92CDB790
S11303E0DEB70097E1F1FC0178948181813089F0D6
S11303F018F08230D9F027C0E0E7F0E010821182D3
S113040084E0828381E08383CF010E948204182FD9
S11304101BC0E0E7F0E081E08083118284E0828306
S11304208383CF010E948204182F0EC0E0E7F0E01E
S113043082E080831182828380E48383CF010E94DF
S11304408204182F01C010E081E0898384E08A834C
S11304501B82CE0101960E946103812B01C081E0C1
S11304600F900F900F90DF91CF911F910895FF92FD
S11304700F931F93CF93DF9300D0CDB7DEB78A01DC
S11304801A8219828230F8F0823019F0FF24F39432
S11304901BC08BB78F7D8BBF84B78F7B84BF6130CC
S11304A019F0623021F006C084B784BF03C084B75A
S11304B0806484BF8AB78F7D8ABF8BB780628BBF0D
S11304C0FF24F39401C0F12CBE016F5F7F4F80E0E5
S11304D00E940D0549815A8160E070E0F801408373
S11304E05183628373838F290F900F90DF91CF9193
S11304F01F910F91FF9008951F920F920FB60F92C4
S113050011242F933F934F935F936F937F938F9314
S11305109F93AF93BF93EF93FF93809163008823DE
S113052019F0813081F01AC060E071E080E00E942F
S1130530CB0444E650E061E082E00E94370281E0AF
S1130540809363000BC044E650E062E082E00E94C6
S1130550370280E00E94F60410926300FF91EF914D
S1130560BF91AF919F918F917F916F915F914F91C7
S11305703F912F910F900FBE0F901F9018951F93CE
S1130580CF93DF9300D000D01F92CDB7DEB719828E
S113059081E08A838FEF8B83CE0101960E946103F1
S11305A0182F1D8282E08C83CE0104960E94EA01FA
S11305B0182B44E650E062E08C810E943702812BC4
S11305C00F900F900F900F900F90DF91CF911F918C
S11305D00895CF934FEF61E080E00E94A103C82FFC
S11305E080E58A95F1F740E061E080E00E94A10394
S11305F08C2BCF910895CF93DF9300D000D0CDB74B
S1130600DEB719821A821B821C8280916B0090E0F3
S1130610982F8827092E000CAA0BBB0B409164006D
S1130620509165006091660070916700840F951F7A
S1130630A61FB71F880F991FAA1FBB1F880F991FDA
S1130640AA1FBB1F880F991FAA1FBB1F880F991FC2
S1130650AA1FBB1F89839A83AB83BC8369817A8178
S11306608B819C810E94DC0520E030E048E652E466
S11306700E943B050E94AD05709369006093680079
S11306802FEF89EF90E0215080409040E1F700C0C7
S1130690000010926B0080E00F900F900F900F906D
S11306A0DF91CF9108950E9449000E9453002FEFDB
S11306B081EE94E0215080409040E1F700C00000BA
S11306C0F4CFFC01892BC9F18081813091F028F0AD
S11306D08230D9F0833029F132C02AB38181982F36
S11306E09095292392819823822F892B8ABB80E0BD
S11306F0089527B38181982F909529239281982377
S1130700822F892B87BB80E0089524B38181982FA1
S11307109095292392819823822F892B84BB80E092
S1130720089521B38181982F90952923928198234C
S1130730822F892B81BB80E0089581E0089581E0B8
S11307400895813079F028F08230A9F08330E1F007
S113075024C08BB3962F909589234623482B4BBBFB
S113076080E0089588B3962F909589234623482BDB
S113077048BB80E0089585B3962F9095892346233E
S1130780482B45BB80E0089582B3962F909589232A
S11307904623482B42BB80E0089581E008950097EA
S11307A0F9F0FC018081813039F0E0F0823071F0A1
S11307B08330C1F081E008958EB59FB58061926861
S11307C09FBD8EBD89B789BF80E008958EB59FB562
S11307D0806192629FBD8EBD89B789BF80E0089514
S11307E081E0089580E00895813041F008F46CC000
S11307F08230B9F1833009F07EC066C022333105FE
S11308004105510531F02436310541055105A9F062
S11308105DC081E792E097BD86BD70E080E090E026
S11308200E94DE0520E030E048EC50E40E946A06B5
S11308300E94AD057BBD6ABD58C088E391E097BDB9
S113084086BD70E080E090E00E94DE0520E030E0AC
S113085048E450E40E946A060E94AD057BBD6ABD6F
S113086044C0223331054105510531F024363105A8
S113087041055105A9F02CC081E792E097BD86BDE2
S113088070E080E090E00E94DE0520E030E048EC7B
S113089050E40E946A060E94AD0579BD68BD25C07A
S11308A088E391E097BD86BD70E080E090E00E940F
S11308B0DE0520E030E048E450E40E946A060E942D
S11308C0AD0579BD68BD11C080E003C081E001C001
S11308D080E02EB53FB524603FBD2EBD811111C00F
S11308E081E080936A0080E008958EB59FB58460AE
S11308F09FBD8EBDF5CF8EB59FB584609FBD8EBD67
S113090081E00895FC01892BE1F180818130B1F00F
S113091018F0823031F137C08181811136C083B73C
S113092083BF83B783BF83B783BF828180936F0004
S113093099B78381892B89BF80E0089581818111D2
S113094026C08EB59FB59FBD8EBD828190E09093E9
S11309506E0080936D0099B78381892B89BF80E0F5
S113096008958181811115C085B585BD82818093EB
S11309706C0099B78381892B89BF82B582BD80E0E1
S1130980089581E0089581E0089580E0089580E06D
S1130990089580E00895813069F018F08230D9F02C
S11309A023C093B780916F00892B83BF619562BF89
S11309B080E008952EB53FB580916D0090916E0052
S11309C0822B932B9FBD8EBD7195619571097DBD61
S11309D06CBD80E0089595B580916C00892B85BD30
S11309E0619564BD80E0089581E00895813049F007
S11309F018F0823059F00FC083B7887F83BF80E03E
S1130A0008958EB5887F8EBD80E0089585B5887F72
S1130A1085BD80E0089581E00895813059F018F093
S1130A20823079F015C082B790E0FB019183808316
S1130A3080E008958CB59DB5FB019183808380E0AF
S1130A40089584B590E0FB019183808380E008954C
S1130A5081E008951F920F920FB60F9211248F9385
S1130A6080916B008F5F80936B008F910F900FBE0E
S1130A700F901F9018950E944F050C9430060E9409
S1130A80290658F00E94220640F029F45F3F29F01D
S1130A900C94190651110C9464060C941F060E94C0
S1130AA0410668F39923B1F3552391F3951B550B34
S1130AB0BB27AA2762177307840738F09F5F5F4F2D
S1130AC0220F331F441FAA1FA9F335D00E2E3AF06C
S1130AD0E0E832D091505040E695001CCAF72BD084
S1130AE0FE2F29D0660F771F881FBB1F26173707D5
S1130AF04807AB07B0E809F0BB0B802DBF01FF2707
S1130B0093585F4F3AF09E3F510578F00C941906C4
S1130B100C9464065F3FE4F3983ED4F3869577958E
S1130B206795B795F7959F5FC9F7880F911D9695BF
S1130B30879597F90895E1E0660F771F881FBB1F1B
S1130B40621773078407BA0720F0621B730B840BC8
S1130B50BA0BEE1F88F7E09508950E94490688F0C5
S1130B609F5798F0B92F9927B751B0F0E1F0660F6D
S1130B70771F881F991F1AF0BA95C9F714C0B130AE
S1130B8091F00E946306B1E008950C946306672F08
S1130B90782F8827B85F39F0B93FCCF386957795DD
S1130BA06795B395D9F73EF49095809570956195C6
S1130BB07F4F8F4F9F4F0895E89409C097FB3EF4F1
S1130BC090958095709561957F4F8F4F9F4F992396
S1130BD0A9F0F92F96E9BB279395F6958795779514
S1130BE06795B795F111F8CFFAF4BB0F11F460FFD4
S1130BF01BC06F5F7F4F8F4F9F4F16C0882311F02C
S1130C0096E911C0772321F09EE8872F762F05C03F
S1130C10662371F096E8862F70E060E02AF09A95DA
S1130C20660F771F881FDAF7880F9695879597F9CF
S1130C30089597F99F6780E870E060E008959FEF5A
S1130C4080EC089500240A9416161706180609065F
S1130C50089500240A94121613061406050608952E
S1130C60092E0394000C11F4882352F0BB0F40F4B6
S1130C70BF2B11F460FF04C06F5F7F4F8F4F9F4FF6
S1130C80089557FD9058440F551F59F05F3F71F078
S1130C904795880F97FB991F61F09F3F79F08795DF
S1130CA00895121613061406551FF2CF4695F1DF68
S1130CB008C0161617061806991FF1CF86957105F8
S1130CC0610508940895E894BB2766277727CB012C
S1130CD097F908950E947D060C9430060E9422061E
S1130CE038F00E94290620F0952311F00C9419067F
S1130CF00C941F0611240C9464060E94410670F3A0
S1130D00959FC1F3950F50E0551F629FF001729FAC
S1130D10BB27F00DB11D639FAA27F00DB11DAA1FBB
S1130D20649F6627B00DA11D661F829F2227B00D08
S1130D30A11D621F739FB00DA11D621F839FA00D93
S1130D40611D221F749F3327A00D611D231F849FE3
S1130D50600D211D822F762F6A2F11249F5750403A
S1130D609AF0F1F088234AF0EE0FFF1FBB1F661FB5
S1130D70771F881F91505040A9F79E3F510580F07E
S1130D800C9419060C9464065F3FE4F3983ED4F384
S1130D90869577956795B795F795E7959F5FC1F722
S1130DA0FE2B880F911D9695879597F90895F894D1
S1050DB0FFCF6F
S1050DB201003A
S9030000FC
